:020000040800F2
:10000000380600209D0100086D1A0008DD16000862
:1000100061190008D502000819220008000000003C
:10002000000000000000000000000000711A00083D
:10003000D7020008000000006F1A0008731A0008B9
:10004000B7010008B7010008B7010008B7010008B0
:10005000B7010008B7010008B7010008B7010008A0
:10006000B7010008B7010008B7010008B701000890
:10007000B7010008B7010008B7010008B701000880
:10008000B7010008B7010008B7010008B701000870
:10009000B7010008B7010008B7010008B701000860
:1000A000B7010008B7010008B7010008B701000850
:1000B000511B0008B70100085D1B0008B7010008CC
:1000C000B7010008B7010008B7010008B701000830
:1000D000B70100080D220008B7010008B7010008A9
:1000E000B7010008B7010008B7010008B701000810
:1000F000B7010008B7010008B7010008B701000800
:10010000B7010008B7010008B7010008B7010008EF
:10011000211E00082D1E0008B7010008B7010008C5
:10012000B7010008B7010008B7010008B7010008CF
:10013000B70100080000000000000000B70100083F
:10014000B7010008B7010008B7010008B7010008AF
:10015000B7010008B7010008B7010008B70100089F
:10016000B7010008B7010008B7010008B70100088F
:10017000B7010008B70100080000000000000000FF
:10018000B7010008B7010008DFF80CD000F090F8C4
:100190000048004799270008380600200648804795
:1001A00006480047FEE7FEE7FEE7FEE7FEE7FEE75C
:1001B000FEE7FEE7FEE7FEE7FD1A000889010008FA
:1001C0002DE9F05F0546002092469B46884606468C
:1001D000814640241BE0284641464746224600F01F
:1001E00057F853465A46C01A914110D31146184643
:1001F000224600F03EF82D1A67EB01084F462246D2
:100200000120002100F035F817EB00094E41201EB7
:10021000A4F10104DFDC484631462A464346BDE8E6
:10022000F09FD2B201E000F8012B491EFBD27047CB
:100230000022F6E710B513460A4604461946FFF7B2
:10024000F0FF204610BD30B50B46014600202022AD
:10025000012409E021FA02F59D4205D303FA02F5D3
:10026000491B04FA02F52844151EA2F10102F1DC33
:1002700030BD202A04DB203A00FA02F1002070474A
:100280009140C2F1200320FA03F3194390407047D4
:10029000202A04DB203A21FA02F00021704721FADB
:1002A00002F3D040C2F12002914008431946704742
:1002B000064C074D06E0E06840F0010394E80700B3
:1002C00098471034AC42F6D3FFF762FF002A0008CB
:1002D000202A0008FEE77047002229B101291AD020
:1002E00002291BD04FF440720E490B6823F440736F
:1002F0000B600B6813430B600A6822F0F8020A6077
:100300000A68022303EBC00002430A60086840F455
:100310008030086070474FF48072E5E74FF4007258
:10032000E2E70000103C0240064A136823F44073E1
:10033000136013681360136843F0010313600170C6
:1003400070470000103C0240084910B50C6824F4C6
:1003500040740C600C6844F440740C600C6844F009
:1003600001040C600260436010BD0000103C0240BC
:10037000074A136823F440731360136843F48073CF
:100380001360136843F0010313600180704700009D
:10039000103C0240074A136823F44073136013684B
:1003A00043F400731360136843F0010313600160AA
:1003B00070470000103C024017490868C206174801
:1003C00005D5C26942F01002C26110220A600A68B3
:1003D000920605D5C26942F00802C26120220A6075
:1003E0000A68520605D5C26942F00402C261402281
:1003F0000A600A68120605D5C26942F00202C261AB
:1004000080220A600A68920705D5C26942F020027C
:10041000C2610220086070470C3C024014020020B8
:1004200070B5114904460020C86100F095F90646F0
:100430000E4D09E0601C07D024B100F08DF9801B3F
:10044000A04201D9032070BD2868C003F2D42868F7
:10045000C00701D001202860286810F0F200F2D017
:10046000FFF7AAFF012070BD140200200C3C0240DF
:1004700070B50C46054600F07BF802210B20FFF713
:100480002BFF224600232946022000F033F8BDE866
:10049000704000F025B890F83510022903D0802173
:1004A000416501207047052180F83510006801681A
:1004B00021F00101016000207047000070B5044682
:1004C00000F04AF90546601C02D004480078044454
:1004D00000F042F9401BA042FAD370BD700000202A
:1004E0000348016841F000410160002070470000AE
:1004F000103C02402DE9F0471B4E05461446307E65
:100500001F468946012808D0012030764CF2503829
:100510004046FFF785FF18B114E00220BDE8F087E0
:100520009DB1012D16D0022D19D022463B464846DA
:10053000FFF70AFF4046FFF773FF0C490A6822F0F5
:1005400001020A6000213176E8E7E1B24846FFF790
:10055000EBFEEFE7A1B24846FFF70AFFEAE72146C4
:100560004846FFF717FFE5E714020020103C024061
:10057000074900200A68002A09DA054A054B0C3AA7
:100580001360054B13600968002900DA01207047E9
:10059000103C024023016745AB89EFCD2DE9F84FB0
:1005A000DFF87CB100224FF001084FF0030A4FF052
:1005B0000F090BF1040E00BF0B6808FA02F4234088
:1005C000A3426ED14D68022D01D0122D0ED1D50857
:1005D00000EB850CDCF820505607F70E09FA07F6F9
:1005E000B5430E69BE402E43CCF820600668550026
:1005F0000F790AFA05FC07F0030726EA0C06AF405C
:10060000374307604E68012E05D0022E03D0112E0D
:1006100001D0122E0ED18668CF6826EA0C06AF40B4
:10062000374387604668A6430C79C4F300149440AE
:1006300034434460C6688C6826EA0C06AC403443F8
:10064000C4604C68E40065D5364C256845F48045A7
:100650002560246822F0030504F480440094324CA1
:100660002E19D6F8084895072F0F09FA07F5AC435D
:100670002E4DA84201D1002524E02D4DA84201D1E4
:1006800001251FE02B4DA84201D102251AE02A4D79
:10069000A84201D1032515E0284DA84202D1042526
:1006A00010E037E0264DA84201D105250AE0254D8E
:1006B000A84201D1062505E0234DA84201D1072516
:1006C00000E00825BD402543C6F80858DBF8004087
:1006D0005D464E689C43F60300D51C432C60DEF853
:1006E000004075464E689C43B60300D51C432C6001
:1006F0000B4D08352C684E689C43F60200D51C4310
:100700002C60074D0C352C684E689C43B60200D512
:100710001C432C60521C102AFFF44EAFBDE8F88F2A
:10072000003C0140443802400030014000000240DB
:100730000004024000080240000C02400010024089
:100740000014024000180240001C02400AB18161FE
:1007500070470904FBE7000001488068704700000B
:10076000700000200248816802781144816070475F
:10077000700000200B4810B5016841F40071016061
:10078000016841F480610160016841F48071016099
:10079000032000F06FF8002000F006F800F024F8C5
:1007A000002010BD003C024070B50D4D04464FF4D2
:1007B0007A712878B1FBF0F00A490968B1FBF0F0D2
:1007C00000F0E0FA48B9102C07D200222146501E52
:1007D00000F030F800206C6070BD012070BD00009A
:1007E000700000207C0000200A4808B5016841F430
:1007F00080410160006800F4804000900548001FBF
:10080000016841F080510160006800F08050009064
:1008100008BD000044380240002809DB00F01F0238
:10082000012191404009800000F1E020C0F8001152
:1008300070470000F0B40E4B1B680C46C3F3022354
:10084000C3F10705042D00D90425191D072901D27C
:10085000002300E0DB1E012606FA05F1491E2140B7
:1008600099409E40761E16403143F0BC01F0EABC30
:100870000CED00E0064900F0070208684FF6FF03A0
:10088000184040EA0220034A104308607047000005
:100890000CED00E00000FA052DE9F0470E460500DA
:1008A00065D0DFF81481D8F80000F7B200F00F002F
:1008B000B04207D288F80070D8F8000000F00F00AE
:1008C000B04254D128683D4C810712D5400703D56A
:1008D000206840F4E05020602878000703D52068A5
:1008E00040F4604020602068A96820F0F0000843D0
:1008F00020602878C0072DD0304968680839012861
:1009000012D0022813D0032811D0096889070029C2
:100910002DDA216821F0030101432160FFF71CFF5C
:10092000814641F2883A0EE009688903EFE70968D9
:100930008901ECE7FFF710FFA0EB0901514502D94F
:100940000320BDE8F0872068696800F00C00B0EB78
:10095000810FEFD1D8F80010404601F00F01B142ED
:1009600007D90770006800F00F00B04201D00120E5
:10097000E7E72878400705D52068E96820F4E050CB
:10098000084320602878000706D52068296920F4EC
:10099000604040EAC100206000F036F82168084A53
:1009A000C1F30311515CC840064908600020FFF7FD
:1009B000FBFE0020C5E70000003C02400838024072
:1009C000E82900087C0000200448054900680968FF
:1009D000044AC1F38221515CC84070477C0000206A
:1009E00008380240F82900080448054900680968E9
:1009F000044AC1F34231515CC84070477C0000207A
:100A000008380240F8290008154810B5006810F0B1
:100A10000C02144813D04110042A0FD0082A0ED11A
:100A20000F4C241F2268236802F03F025B0207D5A7
:100A30002068C0F38810A0FB010106E0084610BD45
:100A40002168C1F38811A1FB00010023FFF7B8FB67
:100A50002168C1F30141491C4900B0FBF1F010BD10
:100A6000083802400024F4002DE9F84F050076D044
:100A70002878DFF8F8B2BE4CC00749D0DBF8001088
:100A80005846C1F38101012908D00068C0F38100F4
:100A900002280AD1201D0068400206D52068800384
:100AA00036D568680028E2D032E06868B0F5803F4B
:100AB00010D0B0F5A02F206810D020F48030206036
:100AC000206820F4802020606868A0B1FFF744FE11
:100AD00006460CE0206840F48030F4E740F48020C3
:100AE0002060F7E7FFF738FE801B642873D8206882
:100AF0008003F7D50CE0FFF72FFE064605E000BFA8
:100B0000FFF72AFE801B6428F0D820688003F7D402
:100B10002878DFF8608280074FF000093ED5DBF8C7
:100B20000010584611F00C0F09D00068C0F3810086
:100B300002280BD18D48001F0068400206D42068AF
:100B4000800715D5E868012809D111E0E868B8B137
:100B50000120C8F80000FFF7FFFD064605E002E1AE
:100B6000FFF7FAFD801B0228C0D820688007F7D560
:100B70002068296920F0F80040EAC10020600DE0FB
:100B8000C8F80090FFF7E8FD064604E0FFF7E4FD33
:100B9000801B02281FD820688007F7D42878000718
:100BA00022D5724E744869696C3671B101210160B9
:100BB000FFF7D2FD074604E0FFF7CEFDC01B022879
:100BC00009D830688007F7D50EE0C0F80090FFF72D
:100BD000C3FD074605E083E0FFF7BEFDC01B02280A
:100BE0007ED830688007F7D42878400768D5DFF8CA
:100BF0007CA100270AF1380ADAF80000C0000BD403
:100C0000DAF8001041F08051CAF80010DAF800005C
:100C1000012700F080500090584E3068C00510D475
:100C2000306840F480703060FFF796FD009005E07A
:100C3000FFF792FD0099401A022851D83068C0058C
:100C4000F6D54A4EA868683601280FD005283068C6
:100C500010D020F001003060306820F004003060D7
:100C6000A868B8B1FFF778FD00900FE0306840F059
:100C70000100F4E740F004003060F7E7FFF76CFD97
:100C80000099411A41F28830814264D83068800767
:100C9000F4D50EE0FFF760FD009007E0FFF75CFD84
:100CA0000099411A41F28830814254D83068800757
:100CB000F4D42FB1DAF8001021F08051CAF80010F6
:100CC000A869C0B3DBF80010C1F3810102294AD042
:100CD0000228484607D0C8F86000FFF73DFD00E055
:100CE00039E005463AE04746C8F86000FFF734FDB2
:100CF000064604E0FFF730FD801B02282BD8206851
:100D00008001F7D4D5E907010843A96A1C4A4908BC
:100D100002EB01416A6A41EA8211084395F82C10FE
:100D200040EA01611148001F016001203866FFF7A9
:100D300013FD054605E014E0FFF70EFD401B0228F9
:100D400009D820688001F7D50BE000BFFFF704FD4C
:100D5000401B022802D90320BDE8F88F20688001DB
:100D6000F4D40020F8E70120F6E70000083802403C
:100D70000038024000004742800E474200700040A9
:100D80000000FFFF10B5401EB0F1807F01D30120AD
:100D900010BD4FF0E02460610F21601701F052FA9E
:100DA0000020A06107202061002010BD704770471F
:100DB00010B590F83C20012A22D0012280F83C2076
:100DC000CA688C6822F4407222434C6822F4806224
:100DD00022430C6822F4006222430C6922F4805200
:100DE00022434C6922F400522243C969002322F4B1
:100DF00080420A4301684A6480F83C30002010BDFC
:100E0000022010BD70B590F83C20012A19D00124B1
:100E100000F83C4F0222427050F83C3C5A689D68F2
:100E200022F070060A684968324325F0800529439C
:100E30005A6050F83C2C91604470002101700846C3
:100E400070BD022070BD10B5040003D094F83D00C1
:100E500010B107E0012010BD002084F83C002046BE
:100E600000F00CF8022084F83D00211D206800F0FD
:100E70007BFE012084F83D00002010BD08B501680C
:100E80001A48814209D11A48016841F00101016004
:100E9000006800F00100009008BD1548001FB1F186
:100EA000804F14D0134A9142F6D1016841F00401F9
:100EB00001600068002200F00400009011461E202E
:100EC000FFF7B8FC1E20BDE80840FFF7A5BC01688D
:100ED00041F0010101600068002200F00100009073
:100EE00011461C20FFF7A6FC1C20ECE70000014087
:100EF000443802400008004070B5044690F83C00B9
:100F0000012817D0012584F83C50022084F83D00C8
:100F10002068826822F0770222F47F4282600868AB
:100F2000502830D00DDC20284DD005DC98B3102897
:100F30003BD148E0022070BD302844D0402834D155
:100F400039E0602828D0702806D0B0F5805F2CD01A
:100F5000B0F5005F29D10AE0CB68D1E90121206812
:100F600000F066FE2068816841F0770109E0CB68F7
:100F7000D1E90121206800F05BFE2068816841F41E
:100F80008041816011E0CA684968206800F024FF50
:100F90005021206807E016E0CA684968206800F020
:100FA0002CFF6021206800F04DFE84F83D500020A9
:100FB00084F83C0070BDCA684968206800F00CFFE6
:100FC00040212068EFE7226801461046EBE77047B2
:100FD00070B50446006801694FF00005C9438907F0
:100FE00015D4C168C943890711D4E91E01610120E4
:100FF0002077206880698007204602D0FFF7E7FF4E
:1010000004E000F0C3F8204600F045F92577206899
:101010000169C943490717D4C168C943490713D4B3
:101020006FF004010161022020772068806910F4CC
:10103000407F204602D0FFF7CAFF04E000F0A6F888
:10104000204600F028F9257720680169C94309077F
:1010500016D4C168C943090712D46FF008010161B1
:10106000042020772068C0698007204602D0FFF75F
:10107000AEFF04E000F08AF8204600F00CF9257776
:1010800020680169C943C90617D4C168C943C906A4
:1010900013D46FF010010161082020772068C06927
:1010A00010F4407F204602D0FFF791FF04E000F0EB
:1010B0006DF8204600F0EFF8257720680169C943F4
:1010C000C90708D1C168C943C90704D1891E016194
:1010D000204600F0E1F820680169C943090609D4F7
:1010E000C168C943090605D46FF08001016120463B
:1010F000FFF75CFE20680169C943490609D4C1684D
:10110000C943490605D46FF040010161204600F053
:10111000FDF820680169C94389060BD4C168C94339
:10112000890607D46FF0200101612046BDE87040B8
:10113000FFF73DBE70BD000010B586B00446142117
:101140006846FFF775F80E492068884216D10D48A9
:101150000021026842F010020260006800F01000F6
:1011600005904FF4206000900220CDE9010103902A
:101170000120049069460448FFF710FA06B010BD3C
:10118000000001403038024000100240704770B546
:10119000044690F83C000D4601280DD0012684F845
:1011A0003C60022084F83D0042B1042A18D0082A8D
:1011B0002AD00C2A4DD139E0022070BD206800F001
:1011C00049FD2068816941F00801816120688169D9
:1011D00021F004018161206881692A69114311E0CD
:1011E000206800F067FD2068816941F40061816139
:1011F0002068816921F480618161206881692A69A0
:1012000041EA0221816124E0206800F089FD206824
:10121000C16941F00801C1612068C16921F0040180
:10122000C1612068C1692A69114311E0206800F09A
:10123000ABFD2068C16941F40061C1612068C169EA
:1012400021F48061C1612068C1692A6941EA0221F3
:10125000C16184F83D60002084F83C0070BD10B589
:10126000040003D094F83D0010B107E0012010BD48
:10127000002084F83C00204600F00CF8022084F89E
:101280003D00211D206800F06FFC012084F83D0026
:10129000002010BD7047704770B5194905460068B9
:1012A0000968184C88420AD10121E06A00F05AFB13
:1012B0000221206B00F056FB2078401C2070104962
:1012C000286840390968884218D10E4D2D1D05F156
:1012D00060002978017069784170616C8170216DBE
:1012E000C170014606480422803000F0D7F92888F2
:1012F000BDE8704041BA0448FFF7BAB870BD0000BD
:10130000000100200000002000000E087047704718
:1013100070B5026804461068D168536910F00F0F69
:1013200051D003F0010501F4907635435DD0C2073A
:1013300005D0CA0503D5E26B42F00102E263420721
:1013400005D5DA0703D0E26B42F00202E2638207BE
:1013500005D5DA0703D0E26B42F00402E26302072C
:1013600005D5DA0703D0E26B42F00802E263E26BD4
:10137000002A34D0800604D5880602D5204600F025
:1013800071FD20684069E16BC0F3801001F0080135
:101390000143204624D000F057FD206841694906EA
:1013A0001AD5416921F040014161606BA0B11B4930
:1013B0000165606BFFF76FF8002810D0606B016D5E
:1013C000BDE87040084783060FD58B060DD5204633
:1013D000BDE8704000F046BD2046FFF798FF70BDA5
:1013E000FFF795FF0020E06370BD030606D50B06EE
:1013F00004D52046BDE8704000F0D6BE4006F3D5C7
:101400004806F1D5D168204621F04001D160202165
:1014100084F8391000F061F970BD0000391E000831
:1014200070B5040004D094F83900002510B106E02E
:10143000012070BD84F83850204600F023F82420A5
:1014400084F839002068C16821F40051C160204649
:1014500000F054FD2068016921F490410161206889
:10146000416921F02A0141612068C16841F40051BD
:10147000C160E563202084F8390084F83A00002038
:1014800070BD0000F0B587B0044614216846FEF731
:10149000CFFE4649DFF810C12368444A10390324BF
:1014A000022501260827424863451DD1136843F4ED
:1014B00000231360126802F4002205920A6842F0C9
:1014C00001020A6009688DE8700001F00101CDE9B0
:1014D000047103946946FFF761F800221146342035
:1014E000FFF7A8F9342034E0DFF8C8C0634534D1F1
:1014F000106840F480101060106800F480100590AF
:10150000086840F004000860086800F004000590D6
:10151000086840F0080008600868694600F00800A4
:1015200005904FF480508DE86100CDE903472248D3
:10153000FFF734F804208DE86100CDE903476946E0
:101540001E48FFF72BF8002211463520FFF772F9ED
:101550003520FFF761F907B0F0BD194A9342FAD17F
:10156000124A121D136843F010031360126802F050
:10157000100205920A6842F001020A60096801F04F
:10158000010105914FF4C0618DE862000721CDE9AA
:1015900003416946FFF702F8002211462520FFF7B4
:1015A00049F92520D5E70000004C004040380240B2
:1015B000000002400050004000080240000C0240C1
:1015C0000010014090F83A30202B22D1F9B1F2B14D
:1015D00090F83830012B1CD081628285C2850021B1
:1015E000C163222280F83A2080F838100168CA6866
:1015F00042F48072CA6001684A6942F001024A619D
:101600000068C16841F02001C160002070470120DE
:10161000704702207047000010B51E49044600685C
:101620000968884218D102221B491A48FFF7CAFFED
:10163000194819490088891E42BA47F230508A6613
:10164000824203DDA2F58032113A8A6610460A22F0
:1016500090FBF2F05A3088660E49206840310968E4
:10166000884206D10C490B480222091D4030FFF781
:10167000A9FF0849206840390968884208D106490D
:1016800004480222891CBDE810404038FFF79ABF89
:1016900010BD0000800100200200002090F83930C9
:1016A000202B18D1A9B1A2B190F83830012B12D05B
:1016B00001628284C2840021C163212280F8392022
:1016C00080F838100068C16841F08001C1600020D6
:1016D000704701207047022070477047FEE7000006
:1016E0002DE9F04387B014216846FEF7A1FD40487C
:1016F0000024016841F080010160016801F080016F
:101700000591016841F001010160016801F00101EA
:101710000591016841F010010160016801F01001BC
:101720000591016841F004010160016801F00401C4
:101730000591016841F008010160016801F00801AC
:101740000591016841F0020101600068294F00F035
:1017500002004FF4AA450590002229463846FEF7BC
:10176000F5FFDFF894800022E8214046FEF7EEFF07
:10177000DFF88890002218214846FEF7E7FF009521
:10178000022601250396CDE9015469463846FEF745
:1017900005FFE820CDE90005CDE90246694640464F
:1017A000FEF7FCFE1820CDE90005CDE902466946AA
:1017B0004846FEF7F3FE0C2000901148CDE90104E5
:1017C00069461048FEF7EAFE002211460820FFF79E
:1017D00031F80820FFF720F8002211460920FFF712
:1017E00029F80920FFF718F807B0BDE8F0830000DA
:1017F0003038024000100240000C02400004024059
:10180000000021100008024010B596B000240F948B
:1018100010941194129413941C2168461494FEF7AA
:1018200007FD202107A8FEF703FD2248204901609B
:101830000A21C0E9011442F2CF01C0E90314446156
:101840008461FFF700FB4FF480500F900FA91948F7
:10185000FFF752FB1748FFF702FD139413A9154831
:101860001494FFF7CFFA6020CDE9000402940394AA
:1018700004940594002269460E480694FFF787FCFD
:10188000042269460B48FFF782FC079408940994E8
:101890004FF400500A94CDE90B4007A905480E9477
:1018A000FFF786FA0348FFF747FC16B010BD0000AB
:1018B000000001408000002010B586B000241248CE
:1018C000009401940294039404944FF08041059491
:1018D000016042F2D001C0E901144FF47A71C0E90D
:1018E00003148461FFF7AFFA4FF48050009069460B
:1018F0000548FFF701FB049404A903480594FFF78A
:1019000081FA06B010BD0000C000002010B586B0FE
:1019100000241248009401940294039404940E4904
:101920000594016042F2D001C0E90114F921C0E937
:1019300003148461FFF787FA4FF4805000906946E2
:101940000648FFF7D9FA049404A904480594FFF760
:1019500059FA06B010BD0000000800400001002048
:10196000FEE70000F0B53F4A42F2D00601241368BA
:10197000771E3D4A4FF47A7501293AD0022937D1B2
:10198000D16BD2F840C0A1EB0C011165D16B116491
:10199000116D401A50659068516D48431062506D4A
:1019A000916D401AD168484300EB8000C0009062FE
:1019B0001069516D484300EBC00101EB001090FB32
:1019C000F5F0516A08445062106A916A0844516AFD
:1019D0000844116E08441066106EB04200DB1766B2
:1019E000106E002800DC1466106E5863506D906510
:1019F000F0BD516BD2F838C0A1EB0C015164516BB2
:101A00009163516C401A90649068916C48435061A6
:101A1000906CD16C401AD168484300EB8000C00044
:101A2000D0611069916C484300EBC00101EB0010DC
:101A300090FBF5F09169084490615069D1690844C0
:101A400091690844D16D0844D065D06DB04200DB87
:101A5000D765D06D002800DCD465D06D5863906CDC
:101A6000D064F0BD80000020000000207047704767
:101A70007047FEF777BE000030B593B0302168465E
:101A8000FEF7D6FB14210CA8FEF7D2FB194800255F
:101A9000016841F080510160006800F080501190B1
:101AA0001548016841F4804101600068022400F497
:101AB0008040119001200090000401908001CDE948
:101AC0000640082008904FF4A870CDE909040420CE
:101AD0000B906846FEF7C8FF0CA90F2081E8310083
:101AE0004FF4A0500F90109005210CA8FEF7D4FEE3
:101AF00013B030BD4038024000700040104801680B
:101B000041F4700101600F48016841F0010101607A
:101B10000C4A00210832116002680B4B1A40026027
:101B2000031D0A4A1A60026822F4802202600548F6
:101B30000C30016002495806803908607047000087
:101B400088ED00E000380240FFFFF6FE1030002470
:101B50000148FFF73DBA0000C00000200148FFF730
:101B600037BA000000010020F0B50268254C264D70
:101B7000264E274F274B4FF0804CA04209D060459E
:101B800007D0A84205D0B04203D0B84201D0984255
:101B900004D122F0700E4A6842EA0E02A0421BD025
:101BA000604519D0A84217D0B04215D0B84213D022
:101BB000984211D0184DA8420ED0184DA8420BD013
:101BC000174DA84208D0174DA84205D0164DA8427F
:101BD00002D0164DA84203D122F44075CA682A43A8
:101BE0004D6922F080022A4302608A68C2620A6854
:101BF0008262A04201D0984201D1096901630121AA
:101C00004161F0BD000001400004004000080040B8
:101C1000000C00400004014000400140004401402D
:101C20000048014000180040001C00400020004017
:101C300010B5846842EA032224F47F440A43224315
:101C4000826010BD826822F070020A4342F00701F0
:101C500081607047F0B5026A22F001020262036AF5
:101C600042688469124E24F073050C682C4323F0FB
:101C700002058B682B430D4DA84201D0B04205D11F
:101C800023F00807CB683B4323F00403A84201D0AC
:101C9000B04205D14D6922F4407215438A692A4346
:101CA00042608461496841630362F0BD0000014005
:101CB00000040140F0B5026A22F010020262026ADA
:101CC000436884690D6824F4E64444EA05248D6879
:101CD00022F0200242EA05120F4D104EA84201D018
:101CE000B04206D1CF6822F0800242EA071222F009
:101CF0004002A84201D0B04207D14D6923F44063AD
:101D000043EA85038D6943EA85034360846149683A
:101D100081630262F0BD0000000001400004014048
:101D2000F0B5026A22F480720262026A4368C469F2
:101D300022F4007224F073050C68124E2C438D6857
:101D400042EA05220E4DA84201D0B04206D1CF682A
:101D500022F4006242EA072222F48062A84201D003
:101D6000B04207D14D6923F4405343EA05138D690E
:101D700043EA05134360C4614968C1630262F0BD70
:101D8000000001400004014030B5026A22F4805294
:101D90000262046A4268C3690D6823F4E64343EAB9
:101DA00005238D6824F4005444EA0534084DA84204
:101DB00002D0084DA84204D14D6922F4804242EA83
:101DC00085124260C36149680164046230BD00004D
:101DD000000001400004014010B5036A046A24F0C9
:101DE00001040462846924F0F00444EA021423F03C
:101DF0000A020A438461026210BD10B5036A23F02F
:101E0000100303628369046A23F4704343EA0232D5
:101E100024F0A00343EA01118261016210BD0000B9
:101E20000148FFF775BA0000400100200148FFF7A4
:101E30006FBA00008001002010B5806B0021C185C1
:101E4000C184FFF764FA10BD0168CA6822F4907279
:101E5000CA6001684A6922F001024A61202180F8C3
:101E60003A10704710B590F83A10222901D002209C
:101E700010BD8168B1F5805F11D00169002901684A
:101E80001FD0496801F07F03816A4A1C82620B708F
:101E9000C18D491E0904090CC18518D02BE00269C7
:101EA000816A002A0268526805D0D2B20A80816A2B
:101EB000491C8162ECE7C2F308020A80816A891C2E
:101EC000F7E74A68816A4B1C83620A70E0E70168A1
:101ED000CA6822F02002CA600168CA6822F48072CF
:101EE000CA6001684A6922F001024A61202180F833
:101EF0003A10FFF791FB002010BD00002DE9F041E2
:101F0000044600680169E26821F44051114301610F
:101F10002169A068E26908436169114322680843A6
:101F2000D16849F20C6399430143D160206841694B
:101F3000A26921F4407111434161E2696425B2F55F
:101F4000004F9748974922684FF032083FD08A42A5
:101F500001D082427CD1FEF747FD00EBC00101EBCE
:101F6000001061688900B0FBF1F6FEF73DFD00EB63
:101F7000C00101EB001061688900B0FBF1F0B0FB1B
:101F8000F5F06FF01801484306EB800108EB0110F3
:101F9000B0FBF5F000F0F006FEF726FD00EBC00107
:101FA00001EB001061688900B0FBF1F0B0FBF5F0C7
:101FB00006EB0016FEF718FD00EBC00101EB001068
:101FC00061688900B0FBF1F7FEF70EFDD2E08A42AE
:101FD00001D082423DD1FEF707FD00EBC00101EBCD
:101FE000001061684900B0FBF1F0B0FBF5F00601AC
:101FF000FEF7FAFC00EBC00101EB0010616849003C
:10200000B0FBF1F7FEF7F0FC00EBC00101EB0010B4
:1020100061684900B0FBF1F0B0FBF5F06FF018011A
:10202000484307EB800108EBC100B0FBF5F000F07E
:10203000F80006EB4006FEF7D7FC00EBC00101EB11
:10204000001061684900B0FBF1F7FEF7CDFC3CE001
:1020500055E0FEF7B9FC00EBC00101EB0010616830
:102060004900B0FBF1F0B0FBF5F00601FEF7ACFC67
:1020700000EBC00101EB001061684900B0FBF1F713
:10208000FEF7A2FC00EBC00101EB00106168490003
:10209000B0FBF1F0B0FBF5F06FF01801484307EB2F
:1020A000800108EBC100B0FBF5F000F0F80006EB92
:1020B0004006FEF789FC00EBC00101EB00106168EF
:1020C0004900B0FBF1F7FEF77FFC00EBC00101EB2C
:1020D000001061684900B0FBF1F0B0FBF5F06FF063
:1020E0001801484307EB800108EBC100B0FBF5F095
:1020F00000F00700216830448860BDE8F081FEF7F9
:1021000063FC00EBC00101EB001061688900B0FBCB
:10211000F1F6FEF759FC00EBC00101EB001061681D
:102120008900B0FBF1F0B0FBF5F06FF01801484307
:1021300006EB800108EB0110B0FBF5F000F0F006B3
:10214000FEF742FC00EBC00101EB00106168890062
:10215000B0FBF1F0B0FBF5F006EB0016FEF734FC37
:1021600000EBC00101EB001061688900B0FBF1F7E2
:10217000FEF72AFC00EBC00101EB0010616889004A
:10218000B0FBF1F0B0FBF5F06FF01801484307EB3E
:10219000800108EB0110B0FBF5F000F00F00A9E79B
:1021A000001401400010014090F83910212901D09D
:1021B000022070478168B1F5805F016A0BD04A1C2C
:1021C0000262026809785160C18C491E0904090C39
:1021D000C1840ED017E009880268C1F3080151607C
:1021E00001690029016A02D0491C0162ECE7891CDF
:1021F000FBE70168CA6822F08002CA600068C16813
:1022000041F04001C1600020704700000148FFF725
:102210007FB80000C0010020FEE700000FB4084BAB
:1022200010B504A902AA039800F02CF8044602A9EC
:10223000002000F0C8F9204610BC5DF814FB000037
:10224000C72500080907090E002804DB00F1E0207B
:1022500080F80014704700F00F0000F1E02080F8D3
:10226000141D704702E008C8121F08C1002AFAD1E5
:1022700070477047002001E001C1121F002AFBD106
:10228000704700002DE9FF4F8BB0884605460026B9
:1022900006E025280BD0DDE90D1290476D1C761C59
:1022A00028780028F5D10FB03046BDE8F08F002423
:1022B000A146A2460122AE4900E0044315F8013FC1
:1022C000203B02FA03F00842F7D128782A2810D0E0
:1022D0006FF02F022878A0F13001092915D809EBF9
:1022E000890102EB410144F0020400EB01096D1C7D
:1022F000F0E758F8041B5FEA010903D544F40054E1
:10230000C9F1000944F002046D1C28782E2817D169
:1023100015F8010F44F004042A280ED06FF02F02A4
:102320002878A0F1300109290AD80AEB8A0102EBCA
:10233000410100EB010A6D1CF2E758F804AB6D1C7B
:1023400028786C280FD006DC4C2817D068280DD0D0
:102350006A2814D104E0742810D07A280FD10DE037
:1023600044F400140AE044F4801401E044F44014FE
:102370006978814202D104F580146D1C6D1C2878A7
:10238000692865D006DC00288DD0632827D0642812
:1023900006D15DE06E2808D073282AD0752877D042
:1023A000DDE90D129047761CE0E0C4F302500228EC
:1023B00009D003280DD0D8F8001004280DD00E60E5
:1023C00008F10408D2E0D8F80010F217C1E9006261
:1023D000F6E7D8F800100E80F2E70E70F0E718F874
:1023E000041B8DF8001000208DF80100EB46012041
:1023F00003E058F804BB4FF0FF3061074FF00007CF
:1024000001D40AE07F1C57450DDA8742FADB1BF83E
:1024100007100029F6D106E07F1C8742FCDB1BF881
:1024200007100029F8D1DDE90D23A9EB070081464B
:10243000214600F0B1F83044C61904E0DDE90D1280
:102440001BF8010B90477F1EF8D22146484688E0D2
:1024500058F8040BC4F302514FF00A0B032900D1C2
:1024600000B2042900D140B2002802DA40422D21F6
:1024700002E0210505D52B218DF82410012104E06F
:1024800006E0E10710D02021F6E708AF089113E03D
:1024900058F8040BC4F302514FF00A0B032900D182
:1024A00080B2042900D1C0B20021EEE75946FDF701
:1024B000CAFE303107F8011D0028F7D1ADEB070047
:1024C00000F1200B600702D524F4803401E04FF0C6
:1024D000010ADA4502DDAAEB0B0000E0002082468B
:1024E00000EB0B0108980144A9EB01000A90E003FE
:1024F00006D4DDE90D2321460A9800F04DF8064484
:102500004FF0000908E009A911F80900DDE90D12F2
:10251000904709F10109761C08998945F3DBE0032E
:102520000CD5DDE90D2321460A9800F035F8064464
:1025300004E0DDE90D1230209047761CBAF100016D
:10254000AAF1010AF5DC05E0DDE90D1217F8010B2F
:102550009047761CBBF10001ABF1010BF4DC0A984B
:102560002146DDE90D2300F005F806446D1C97E6D1
:10257000092801002DE9F041044600251E461746B2
:10258000880404D405E039462020B0476D1C641E41
:10259000F9D52846BDE8F0812DE9F0410446002533
:1025A0001E469046C80301D5302700E02027880446
:1025B00004D505E041463846B0476D1C641EF9D588
:1025C0002846BDE8F0810A68531C0B601070704704
:1025D00070B5144DAC1C2878217888420AD2B420FA
:1025E00000F078F900F0DCF928782178884201D3EE
:1025F00000F0AEF92878217888420AD9002000F04E
:1026000069F900F0CDF928782178884201D800F0E6
:102610009FF928782178884203D1BDE8704000F006
:1026200097B970BD040000202DE9F0410D4E002542
:102630004FF4FA770024726C0BA10D48FFF7EEFD02
:10264000A006010EE8B20A4A00F014F83846FDF779
:1026500035FF641C052CEEDB6D1C042DEADBBDE8A8
:10266000F08100000000002025336C6400000000B1
:102670000002002010B5144630B1012806D002280F
:1026800006D0032811D105E0803104E0C03102E01A
:10269000943100E0D431C9B2002000F00BF804E01E
:1026A000C1B2012000F006F8641C20780028F7D1A0
:1026B00010BD000070B506460C460220FDF7FEFE78
:1026C000334D0EB1012200E0002208212846FEF71A
:1026D0003DF8304E200601D5012200E000221021F5
:1026E0003046FEF733F8600601D5012200E00022F3
:1026F00008213046FEF72AF8A00601D5012200E0A5
:10270000002280212846FEF721F8E00601D50122AB
:1027100000E0002240212846FEF718F8012220217F
:102720002846FEF713F8002220212846FEF70EF86F
:10273000200701D5012200E0002210213046FEF7DB
:1027400005F8600701D5012200E00022082130468B
:10275000FDF7FCFFA00701D5012200E00022802147
:102760002846FDF7F3FFE00701D0012200E0002238
:1027700040212846FDF7EAFF012220212846FDF7E7
:10278000E5FF2846BDE8704000222021FDF7DEBFAE
:10279000000C024000040240FDF7ECFFFFF76CF96B
:1027A000FEF79EFFFFF730F8FFF786F8FFF7AEF869
:1027B000214820494FF4E13500240160C0E901546B
:1027C0000C26C460C0E904468461C461FEF728FE9B
:1027D00019481A4940300160C0E90154C460C0E999
:1027E00004468461C461FEF71BFE1348144980301F
:1027F0000160C0E90154C460C0E904468461C46159
:10280000FEF70EFE0C4802220E494030FEF7DAFEBB
:102810000C4909480222091D8030FEF7D3FE094900
:102820000222891C0448FEF7CDFE00BFFFF7D0FE50
:10283000FCE70000004C0040400100200050004038
:10284000001001400200002010B50F4C00224FF490
:1028500080712046FDF77AFF012291022046FDF7A4
:1028600075FF012211032046FDF770FF00224FF48F
:1028700000412046FDF76AFF04495420C8620863FE
:10288000BDE81040FFF7D0BE00100240000000205D
:1028900010B50E4C012211022046FDF757FF002211
:1028A00021152046FDF752FF0022A1142046FDF716
:1028B0004DFF0122D1032046FDF748FF0449542073
:1028C000C8620863BDE81040FFF7AEBE00100240CA
:1028D0000000002010B5134CE0667A2000F024F8C8
:1028E000D4E91A0181420ADD7A2000F01DF8FFF7D1
:1028F000CFFFD4E91A018142F6DA00F021F8D4E9D9
:102900001A0181420CDA7A2000F00EF8FFF79CFFE2
:10291000D4E91A018142F6DDBDE8104000F010B89C
:1029200010BD000000000020034901224870491C2E
:102930000248FEF7B3BE0000000000208001002026
:10294000024800210163C1627047000000000020BE
:1029500070B5124DAC1C6878617888420AD25A2052
:10296000FFF7B8FF00F01CF868786178884201D35F
:10297000FFF7E6FF6878617888420DD94FF48770D9
:10298000FFF7A8FF00F00CF868786178884203D858
:10299000BDE87040FFF7D4BF70BD00000400002008
:1029A00010B50F4C00224FF480712046FDF7CEFE8B
:1029B000012291022046FDF7C9FE0022A114204603
:1029C000FDF7C4FE0122D1032046FDF7BFFE0549F5
:1029D0005420C8620863BDE81040FFF725BE000020
:1029E0000010024000000020000000000000000075
:1029F00001020304060708090000000001020304A5
:102A0000202A000800000020800000006422000846
:102A1000A02A000880000020B805000074220008E9
:102A200000000000000000000A0000000A00000092
:102A30000100000000000000000000000000000095
:102A40000000000000000000000000000000000086
:102A50000000000000000000000000000000000076
:102A60000000000000000000000000000000000066
:102A70000000000000000000000000000000000056
:102A80000000000000000000000000000000000046
:102A90000100000010000000000000000024F4000D
:040000050800018965
:00000001FF
